{
    "_format": "hh-sol-artifact-1",
    "contractName": "RandomNFT",
    "sourceName": "contracts/RandomNFT.sol",
    "abi": [
        {
            "inputs": [],
            "stateMutability": "payable",
            "type": "constructor"
        },
        {
            "anonymous": false,
            "inputs": [
                {
                    "indexed": true,
                    "internalType": "address",
                    "name": "owner",
                    "type": "address"
                },
                {
                    "indexed": true,
                    "internalType": "address",
                    "name": "approved",
                    "type": "address"
                },
                {
                    "indexed": true,
                    "internalType": "uint256",
                    "name": "tokenId",
                    "type": "uint256"
                }
            ],
            "name": "Approval",
            "type": "event"
        },
        {
            "anonymous": false,
            "inputs": [
                {
                    "indexed": true,
                    "internalType": "address",
                    "name": "owner",
                    "type": "address"
                },
                {
                    "indexed": true,
                    "internalType": "address",
                    "name": "operator",
                    "type": "address"
                },
                {
                    "indexed": false,
                    "internalType": "bool",
                    "name": "approved",
                    "type": "bool"
                }
            ],
            "name": "ApprovalForAll",
            "type": "event"
        },
        {
            "anonymous": false,
            "inputs": [
                {
                    "indexed": true,
                    "internalType": "address",
                    "name": "previousOwner",
                    "type": "address"
                },
                {
                    "indexed": true,
                    "internalType": "address",
                    "name": "newOwner",
                    "type": "address"
                }
            ],
            "name": "OwnershipTransferred",
            "type": "event"
        },
        {
            "anonymous": false,
            "inputs": [
                {
                    "indexed": true,
                    "internalType": "address",
                    "name": "from",
                    "type": "address"
                },
                {
                    "indexed": true,
                    "internalType": "address",
                    "name": "to",
                    "type": "address"
                },
                {
                    "indexed": true,
                    "internalType": "uint256",
                    "name": "tokenId",
                    "type": "uint256"
                }
            ],
            "name": "Transfer",
            "type": "event"
        },
        {
            "inputs": [
                {
                    "internalType": "address",
                    "name": "to",
                    "type": "address"
                },
                {
                    "internalType": "uint256",
                    "name": "tokenId",
                    "type": "uint256"
                }
            ],
            "name": "approve",
            "outputs": [],
            "stateMutability": "nonpayable",
            "type": "function"
        },
        {
            "inputs": [
                {
                    "internalType": "address",
                    "name": "owner",
                    "type": "address"
                }
            ],
            "name": "balanceOf",
            "outputs": [
                {
                    "internalType": "uint256",
                    "name": "",
                    "type": "uint256"
                }
            ],
            "stateMutability": "view",
            "type": "function"
        },
        {
            "inputs": [
                {
                    "internalType": "uint256",
                    "name": "tokenId",
                    "type": "uint256"
                }
            ],
            "name": "getApproved",
            "outputs": [
                {
                    "internalType": "address",
                    "name": "",
                    "type": "address"
                }
            ],
            "stateMutability": "view",
            "type": "function"
        },
        {
            "inputs": [
                {
                    "internalType": "address",
                    "name": "owner",
                    "type": "address"
                },
                {
                    "internalType": "address",
                    "name": "operator",
                    "type": "address"
                }
            ],
            "name": "isApprovedForAll",
            "outputs": [
                {
                    "internalType": "bool",
                    "name": "",
                    "type": "bool"
                }
            ],
            "stateMutability": "view",
            "type": "function"
        },
        {
            "inputs": [],
            "name": "isPublicMintEnabled",
            "outputs": [
                {
                    "internalType": "bool",
                    "name": "",
                    "type": "bool"
                }
            ],
            "stateMutability": "view",
            "type": "function"
        },
        {
            "inputs": [],
            "name": "maxPerWallet",
            "outputs": [
                {
                    "internalType": "uint256",
                    "name": "",
                    "type": "uint256"
                }
            ],
            "stateMutability": "view",
            "type": "function"
        },
        {
            "inputs": [],
            "name": "maxSupply",
            "outputs": [
                {
                    "internalType": "uint256",
                    "name": "",
                    "type": "uint256"
                }
            ],
            "stateMutability": "view",
            "type": "function"
        },
        {
            "inputs": [
                {
                    "internalType": "uint256",
                    "name": "quantity_",
                    "type": "uint256"
                }
            ],
            "name": "mint",
            "outputs": [],
            "stateMutability": "payable",
            "type": "function"
        },
        {
            "inputs": [],
            "name": "mintPrice",
            "outputs": [
                {
                    "internalType": "uint256",
                    "name": "",
                    "type": "uint256"
                }
            ],
            "stateMutability": "view",
            "type": "function"
        },
        {
            "inputs": [],
            "name": "name",
            "outputs": [
                {
                    "internalType": "string",
                    "name": "",
                    "type": "string"
                }
            ],
            "stateMutability": "view",
            "type": "function"
        },
        {
            "inputs": [],
            "name": "owner",
            "outputs": [
                {
                    "internalType": "address",
                    "name": "",
                    "type": "address"
                }
            ],
            "stateMutability": "view",
            "type": "function"
        },
        {
            "inputs": [
                {
                    "internalType": "uint256",
                    "name": "tokenId",
                    "type": "uint256"
                }
            ],
            "name": "ownerOf",
            "outputs": [
                {
                    "internalType": "address",
                    "name": "",
                    "type": "address"
                }
            ],
            "stateMutability": "view",
            "type": "function"
        },
        {
            "inputs": [],
            "name": "renounceOwnership",
            "outputs": [],
            "stateMutability": "nonpayable",
            "type": "function"
        },
        {
            "inputs": [
                {
                    "internalType": "address",
                    "name": "from",
                    "type": "address"
                },
                {
                    "internalType": "address",
                    "name": "to",
                    "type": "address"
                },
                {
                    "internalType": "uint256",
                    "name": "tokenId",
                    "type": "uint256"
                }
            ],
            "name": "safeTransferFrom",
            "outputs": [],
            "stateMutability": "nonpayable",
            "type": "function"
        },
        {
            "inputs": [
                {
                    "internalType": "address",
                    "name": "from",
                    "type": "address"
                },
                {
                    "internalType": "address",
                    "name": "to",
                    "type": "address"
                },
                {
                    "internalType": "uint256",
                    "name": "tokenId",
                    "type": "uint256"
                },
                {
                    "internalType": "bytes",
                    "name": "data",
                    "type": "bytes"
                }
            ],
            "name": "safeTransferFrom",
            "outputs": [],
            "stateMutability": "nonpayable",
            "type": "function"
        },
        {
            "inputs": [
                {
                    "internalType": "address",
                    "name": "operator",
                    "type": "address"
                },
                {
                    "internalType": "bool",
                    "name": "approved",
                    "type": "bool"
                }
            ],
            "name": "setApprovalForAll",
            "outputs": [],
            "stateMutability": "nonpayable",
            "type": "function"
        },
        {
            "inputs": [
                {
                    "internalType": "string",
                    "name": "baseTokenUri_",
                    "type": "string"
                }
            ],
            "name": "setBaseTokenUri",
            "outputs": [],
            "stateMutability": "nonpayable",
            "type": "function"
        },
        {
            "inputs": [
                {
                    "internalType": "bool",
                    "name": "isPublicMintEnabled_",
                    "type": "bool"
                }
            ],
            "name": "setIsPublicMintEnable",
            "outputs": [],
            "stateMutability": "nonpayable",
            "type": "function"
        },
        {
            "inputs": [
                {
                    "internalType": "bytes4",
                    "name": "interfaceId",
                    "type": "bytes4"
                }
            ],
            "name": "supportsInterface",
            "outputs": [
                {
                    "internalType": "bool",
                    "name": "",
                    "type": "bool"
                }
            ],
            "stateMutability": "view",
            "type": "function"
        },
        {
            "inputs": [],
            "name": "symbol",
            "outputs": [
                {
                    "internalType": "string",
                    "name": "",
                    "type": "string"
                }
            ],
            "stateMutability": "view",
            "type": "function"
        },
        {
            "inputs": [
                {
                    "internalType": "uint256",
                    "name": "tokenId_",
                    "type": "uint256"
                }
            ],
            "name": "tokenURI",
            "outputs": [
                {
                    "internalType": "string",
                    "name": "",
                    "type": "string"
                }
            ],
            "stateMutability": "view",
            "type": "function"
        },
        {
            "inputs": [],
            "name": "totalSupply",
            "outputs": [
                {
                    "internalType": "uint256",
                    "name": "",
                    "type": "uint256"
                }
            ],
            "stateMutability": "view",
            "type": "function"
        },
        {
            "inputs": [
                {
                    "internalType": "address",
                    "name": "from",
                    "type": "address"
                },
                {
                    "internalType": "address",
                    "name": "to",
                    "type": "address"
                },
                {
                    "internalType": "uint256",
                    "name": "tokenId",
                    "type": "uint256"
                }
            ],
            "name": "transferFrom",
            "outputs": [],
            "stateMutability": "nonpayable",
            "type": "function"
        },
        {
            "inputs": [
                {
                    "internalType": "address",
                    "name": "newOwner",
                    "type": "address"
                }
            ],
            "name": "transferOwnership",
            "outputs": [],
            "stateMutability": "nonpayable",
            "type": "function"
        },
        {
            "inputs": [
                {
                    "internalType": "address",
                    "name": "",
                    "type": "address"
                }
            ],
            "name": "walletMints",
            "outputs": [
                {
                    "internalType": "uint256",
                    "name": "",
                    "type": "uint256"
                }
            ],
            "stateMutability": "view",
            "type": "function"
        },
        {
            "inputs": [],
            "name": "withdraw",
            "outputs": [],
            "stateMutability": "nonpayable",
            "type": "function"
        },
        {
            "inputs": [],
            "name": "withdrawWallet",
            "outputs": [
                {
                    "internalType": "address payable",
                    "name": "",
                    "type": "address"
                }
            ],
            "stateMutability": "view",
            "type": "function"
        }
    ],
    "bytecode": "0x60806040526040518060400160405280600681526020017f52616e646f6d00000000000000000000000000000000000000000000000000008152506040518060400160405280600281526020017f5244000000000000000000000000000000000000000000000000000000000000815250816000908051906020019062000088929190620001bf565b508060019080519060200190620000a1929190620001bf565b505050620000c4620000b8620000f160201b60201c565b620000f960201b60201c565b66470de4df82000060078190555060006008819055506103e86009819055506005600a81905550620002d4565b600033905090565b6000600660009054906101000a900473ffffffffffffffffffffffffffffffffffffffff16905081600660006101000a81548173ffffffffffffffffffffffffffffffffffffffff021916908373ffffffffffffffffffffffffffffffffffffffff1602179055508173ffffffffffffffffffffffffffffffffffffffff168173ffffffffffffffffffffffffffffffffffffffff167f8be0079c531659141344cd1fd0a4f28419497f9722a3daafe3b4186f6b6457e060405160405180910390a35050565b828054620001cd906200026f565b90600052602060002090601f016020900481019282620001f157600085556200023d565b82601f106200020c57805160ff19168380011785556200023d565b828001600101855582156200023d579182015b828111156200023c5782518255916020019190600101906200021f565b5b5090506200024c919062000250565b5090565b5b808211156200026b57600081600090555060010162000251565b5090565b600060028204905060018216806200028857607f821691505b602082108114156200029f576200029e620002a5565b5b50919050565b7f4e487b7100000000000000000000000000000000000000000000000000000000600052602260045260246000fd5b6135ef80620002e46000396000f3fe60806040526004361061019c5760003560e01c8063715018a6116100ec578063b88d4fde1161008a578063d5abeb0111610064578063d5abeb0114610593578063e985e9c5146105be578063f0293fd3146105fb578063f2fde38b146106385761019c565b8063b88d4fde14610504578063c45580d41461052d578063c87b56dd146105565761019c565b806395652cfa116100c657806395652cfa1461046b57806395d89b4114610494578063a0712d68146104bf578063a22cb465146104db5761019c565b8063715018a6146103fe57806385d178f4146104155780638da5cb5b146104405761019c565b806323b872dd11610159578063453c231011610133578063453c23101461032e5780636352211e146103595780636817c76c1461039657806370a08231146103c15761019c565b806323b872dd146102c55780633ccfd60b146102ee57806342842e0e146103055761019c565b80630116bc2d146101a157806301ffc9a7146101cc57806306fdde0314610209578063081812fc14610234578063095ea7b31461027157806318160ddd1461029a575b600080fd5b3480156101ad57600080fd5b506101b6610661565b6040516101c39190612ac3565b60405180910390f35b3480156101d857600080fd5b506101f360048036038101906101ee9190612500565b610674565b6040516102009190612ac3565b60405180910390f35b34801561021557600080fd5b5061021e610756565b60405161022b9190612ade565b60405180910390f35b34801561024057600080fd5b5061025b60048036038101906102569190612597565b6107e8565b6040516102689190612a41565b60405180910390f35b34801561027d57600080fd5b506102986004803603810190610293919061249b565b61082e565b005b3480156102a657600080fd5b506102af610946565b6040516102bc9190612d60565b60405180910390f35b3480156102d157600080fd5b506102ec60048036038101906102e79190612395565b61094c565b005b3480156102fa57600080fd5b506103036109ac565b005b34801561031157600080fd5b5061032c60048036038101906103279190612395565b610a85565b005b34801561033a57600080fd5b50610343610aa5565b6040516103509190612d60565b60405180910390f35b34801561036557600080fd5b50610380600480360381019061037b9190612597565b610aab565b60405161038d9190612a41565b60405180910390f35b3480156103a257600080fd5b506103ab610b32565b6040516103b89190612d60565b60405180910390f35b3480156103cd57600080fd5b506103e860048036038101906103e39190612330565b610b38565b6040516103f59190612d60565b60405180910390f35b34801561040a57600080fd5b50610413610bf0565b005b34801561042157600080fd5b5061042a610c04565b6040516104379190612a5c565b60405180910390f35b34801561044c57600080fd5b50610455610c2a565b6040516104629190612a41565b60405180910390f35b34801561047757600080fd5b50610492600480360381019061048d9190612552565b610c54565b005b3480156104a057600080fd5b506104a9610c72565b6040516104b69190612ade565b60405180910390f35b6104d960048036038101906104d49190612597565b610d04565b005b3480156104e757600080fd5b5061050260048036038101906104fd919061245f565b610edb565b005b34801561051057600080fd5b5061052b600480360381019061052691906123e4565b610ef1565b005b34801561053957600080fd5b50610554600480360381019061054f91906124d7565b610f53565b005b34801561056257600080fd5b5061057d60048036038101906105789190612597565b610f78565b60405161058a9190612ade565b60405180910390f35b34801561059f57600080fd5b506105a8610ff4565b6040516105b59190612d60565b60405180910390f35b3480156105ca57600080fd5b506105e560048036038101906105e09190612359565b610ffa565b6040516105f29190612ac3565b60405180910390f35b34801561060757600080fd5b50610622600480360381019061061d9190612330565b61108e565b60405161062f9190612d60565b60405180910390f35b34801561064457600080fd5b5061065f600480360381019061065a9190612330565b6110a6565b005b600b60009054906101000a900460ff1681565b60007f80ac58cd000000000000000000000000000000000000000000000000000000007bffffffffffffffffffffffffffffffffffffffffffffffffffffffff1916827bffffffffffffffffffffffffffffffffffffffffffffffffffffffff1916148061073f57507f5b5e139f000000000000000000000000000000000000000000000000000000007bffffffffffffffffffffffffffffffffffffffffffffffffffffffff1916827bffffffffffffffffffffffffffffffffffffffffffffffffffffffff1916145b8061074f575061074e8261112a565b5b9050919050565b60606000805461076590612fac565b80601f016020809104026020016040519081016040528092919081815260200182805461079190612fac565b80156107de5780601f106107b3576101008083540402835291602001916107de565b820191906000526020600020905b8154815290600101906020018083116107c157829003601f168201915b5050505050905090565b60006107f382611194565b6004600083815260200190815260200160002060009054906101000a900473ffffffffffffffffffffffffffffffffffffffff169050919050565b600061083982610aab565b90508073ffffffffffffffffffffffffffffffffffffffff168373ffffffffffffffffffffffffffffffffffffffff1614156108aa576040517f08c379a00000000000000000000000000000000000000000000000000000000081526004016108a190612ce0565b60405180910390fd5b8073ffffffffffffffffffffffffffffffffffffffff166108c96111df565b73ffffffffffffffffffffffffffffffffffffffff1614806108f857506108f7816108f26111df565b610ffa565b5b610937576040517f08c379a000000000000000000000000000000000000000000000000000000000815260040161092e90612d00565b60405180910390fd5b61094183836111e7565b505050565b60085481565b61095d6109576111df565b826112a0565b61099c576040517f08c379a000000000000000000000000000000000000000000000000000000000815260040161099390612b20565b60405180910390fd5b6109a7838383611335565b505050565b6109b461162f565b6000600d60009054906101000a900473ffffffffffffffffffffffffffffffffffffffff1673ffffffffffffffffffffffffffffffffffffffff16476040516109fc90612a2c565b60006040518083038185875af1925050503d8060008114610a39576040519150601f19603f3d011682016040523d82523d6000602084013e610a3e565b606091505b5050905080610a82576040517f08c379a0000000000000000000000000000000000000000000000000000000008152600401610a7990612d40565b60405180910390fd5b50565b610aa083838360405180602001604052806000815250610ef1565b505050565b600a5481565b600080610ab7836116ad565b9050600073ffffffffffffffffffffffffffffffffffffffff168173ffffffffffffffffffffffffffffffffffffffff161415610b29576040517f08c379a0000000000000000000000000000000000000000000000000000000008152600401610b2090612cc0565b60405180910390fd5b80915050919050565b60075481565b60008073ffffffffffffffffffffffffffffffffffffffff168273ffffffffffffffffffffffffffffffffffffffff161415610ba9576040517f08c379a0000000000000000000000000000000000000000000000000000000008152600401610ba090612c40565b60405180910390fd5b600360008373ffffffffffffffffffffffffffffffffffffffff1673ffffffffffffffffffffffffffffffffffffffff168152602001908152602001600020549050919050565b610bf861162f565b610c0260006116ea565b565b600d60009054906101000a900473ffffffffffffffffffffffffffffffffffffffff1681565b6000600660009054906101000a900473ffffffffffffffffffffffffffffffffffffffff16905090565b610c5c61162f565b8181600c9190610c6d929190612172565b505050565b606060018054610c8190612fac565b80601f0160208091040260200160405190810160405280929190818152602001828054610cad90612fac565b8015610cfa5780601f10610ccf57610100808354040283529160200191610cfa565b820191906000526020600020905b815481529060010190602001808311610cdd57829003601f168201915b5050505050905090565b600b60009054906101000a900460ff16610d53576040517f08c379a0000000000000000000000000000000000000000000000000000000008152600401610d4a90612b60565b60405180910390fd5b60075481610d619190612e8a565b3414610da2576040517f08c379a0000000000000000000000000000000000000000000000000000000008152600401610d9990612b00565b60405180910390fd5b60095481600854610db39190612e34565b1115610df4576040517f08c379a0000000000000000000000000000000000000000000000000000000008152600401610deb90612c20565b60405180910390fd5b600a5481600e60003373ffffffffffffffffffffffffffffffffffffffff1673ffffffffffffffffffffffffffffffffffffffff16815260200190815260200160002054610e429190612e34565b1115610e83576040517f08c379a0000000000000000000000000000000000000000000000000000000008152600401610e7a90612ca0565b60405180910390fd5b60005b81811015610ed75760006001600854610e9f9190612e34565b905060086000815480929190610eb49061300f565b9190505550610ec333826117b0565b508080610ecf9061300f565b915050610e86565b5050565b610eed610ee66111df565b83836117ce565b5050565b610f02610efc6111df565b836112a0565b610f41576040517f08c379a0000000000000000000000000000000000000000000000000000000008152600401610f3890612b20565b60405180910390fd5b610f4d8484848461193b565b50505050565b610f5b61162f565b80600b60006101000a81548160ff02191690831515021790555050565b6060610f8382611997565b610fc2576040517f08c379a0000000000000000000000000000000000000000000000000000000008152600401610fb990612d20565b60405180910390fd5b600c610fcd836119d8565b604051602001610fde9291906129fd565b6040516020818303038152906040529050919050565b60095481565b6000600560008473ffffffffffffffffffffffffffffffffffffffff1673ffffffffffffffffffffffffffffffffffffffff16815260200190815260200160002060008373ffffffffffffffffffffffffffffffffffffffff1673ffffffffffffffffffffffffffffffffffffffff16815260200190815260200160002060009054906101000a900460ff16905092915050565b600e6020528060005260406000206000915090505481565b6110ae61162f565b600073ffffffffffffffffffffffffffffffffffffffff168173ffffffffffffffffffffffffffffffffffffffff16141561111e576040517f08c379a000000000000000000000000000000000000000000000000000000000815260040161111590612b80565b60405180910390fd5b611127816116ea565b50565b60007f01ffc9a7000000000000000000000000000000000000000000000000000000007bffffffffffffffffffffffffffffffffffffffffffffffffffffffff1916827bffffffffffffffffffffffffffffffffffffffffffffffffffffffff1916149050919050565b61119d81611997565b6111dc576040517f08c379a00000000000000000000000000000000000000000000000000000000081526004016111d390612cc0565b60405180910390fd5b50565b600033905090565b816004600083815260200190815260200160002060006101000a81548173ffffffffffffffffffffffffffffffffffffffff021916908373ffffffffffffffffffffffffffffffffffffffff160217905550808273ffffffffffffffffffffffffffffffffffffffff1661125a83610aab565b73ffffffffffffffffffffffffffffffffffffffff167f8c5be1e5ebec7d5bd14f71427d1e84f3dd0314c0f7b2291e5b200ac8c7c3b92560405160405180910390a45050565b6000806112ac83610aab565b90508073ffffffffffffffffffffffffffffffffffffffff168473ffffffffffffffffffffffffffffffffffffffff1614806112ee57506112ed8185610ffa565b5b8061132c57508373ffffffffffffffffffffffffffffffffffffffff16611314846107e8565b73ffffffffffffffffffffffffffffffffffffffff16145b91505092915050565b8273ffffffffffffffffffffffffffffffffffffffff1661135582610aab565b73ffffffffffffffffffffffffffffffffffffffff16146113ab576040517f08c379a00000000000000000000000000000000000000000000000000000000081526004016113a290612ba0565b60405180910390fd5b600073ffffffffffffffffffffffffffffffffffffffff168273ffffffffffffffffffffffffffffffffffffffff16141561141b576040517f08c379a000000000000000000000000000000000000000000000000000000000815260040161141290612be0565b60405180910390fd5b6114288383836001611afc565b8273ffffffffffffffffffffffffffffffffffffffff1661144882610aab565b73ffffffffffffffffffffffffffffffffffffffff161461149e576040517f08c379a000000000000000000000000000000000000000000000000000000000815260040161149590612ba0565b60405180910390fd5b6004600082815260200190815260200160002060006101000a81549073ffffffffffffffffffffffffffffffffffffffff02191690556001600360008573ffffffffffffffffffffffffffffffffffffffff1673ffffffffffffffffffffffffffffffffffffffff168152602001908152602001600020600082825403925050819055506001600360008473ffffffffffffffffffffffffffffffffffffffff1673ffffffffffffffffffffffffffffffffffffffff16815260200190815260200160002060008282540192505081905550816002600083815260200190815260200160002060006101000a81548173ffffffffffffffffffffffffffffffffffffffff021916908373ffffffffffffffffffffffffffffffffffffffff160217905550808273ffffffffffffffffffffffffffffffffffffffff168473ffffffffffffffffffffffffffffffffffffffff167fddf252ad1be2c89b69c2b068fc378daa952ba7f163c4a11628f55a4df523b3ef60405160405180910390a461162a8383836001611b02565b505050565b6116376111df565b73ffffffffffffffffffffffffffffffffffffffff16611655610c2a565b73ffffffffffffffffffffffffffffffffffffffff16146116ab576040517f08c379a00000000000000000000000000000000000000000000000000000000081526004016116a290612c80565b60405180910390fd5b565b60006002600083815260200190815260200160002060009054906101000a900473ffffffffffffffffffffffffffffffffffffffff169050919050565b6000600660009054906101000a900473ffffffffffffffffffffffffffffffffffffffff16905081600660006101000a81548173ffffffffffffffffffffffffffffffffffffffff021916908373ffffffffffffffffffffffffffffffffffffffff1602179055508173ffffffffffffffffffffffffffffffffffffffff168173ffffffffffffffffffffffffffffffffffffffff167f8be0079c531659141344cd1fd0a4f28419497f9722a3daafe3b4186f6b6457e060405160405180910390a35050565b6117ca828260405180602001604052806000815250611b08565b5050565b8173ffffffffffffffffffffffffffffffffffffffff168373ffffffffffffffffffffffffffffffffffffffff16141561183d576040517f08c379a000000000000000000000000000000000000000000000000000000000815260040161183490612c00565b60405180910390fd5b80600560008573ffffffffffffffffffffffffffffffffffffffff1673ffffffffffffffffffffffffffffffffffffffff16815260200190815260200160002060008473ffffffffffffffffffffffffffffffffffffffff1673ffffffffffffffffffffffffffffffffffffffff16815260200190815260200160002060006101000a81548160ff0219169083151502179055508173ffffffffffffffffffffffffffffffffffffffff168373ffffffffffffffffffffffffffffffffffffffff167f17307eab39ab6107e8899845ad3d59bd9653f200f220920489ca2b5937696c318360405161192e9190612ac3565b60405180910390a3505050565b611946848484611335565b61195284848484611b63565b611991576040517f08c379a000000000000000000000000000000000000000000000000000000000815260040161198890612b40565b60405180910390fd5b50505050565b60008073ffffffffffffffffffffffffffffffffffffffff166119b9836116ad565b73ffffffffffffffffffffffffffffffffffffffff1614159050919050565b6060600060016119e784611cfa565b01905060008167ffffffffffffffff811115611a2c577f4e487b7100000000000000000000000000000000000000000000000000000000600052604160045260246000fd5b6040519080825280601f01601f191660200182016040528015611a5e5781602001600182028036833780820191505090505b509050600082602001820190505b600115611af1578080600190039150507f3031323334353637383961626364656600000000000000000000000000000000600a86061a8153600a8581611adb577f4e487b7100000000000000000000000000000000000000000000000000000000600052601260045260246000fd5b0494506000851415611aec57611af1565b611a6c565b819350505050919050565b50505050565b50505050565b611b128383611f31565b611b1f6000848484611b63565b611b5e576040517f08c379a0000000000000000000000000000000000000000000000000000000008152600401611b5590612b40565b60405180910390fd5b505050565b6000611b848473ffffffffffffffffffffffffffffffffffffffff1661214f565b15611ced578373ffffffffffffffffffffffffffffffffffffffff1663150b7a02611bad6111df565b8786866040518563ffffffff1660e01b8152600401611bcf9493929190612a77565b602060405180830381600087803b158015611be957600080fd5b505af1925050508015611c1a57506040513d601f19601f82011682018060405250810190611c179190612529565b60015b611c9d573d8060008114611c4a576040519150601f19603f3d011682016040523d82523d6000602084013e611c4f565b606091505b50600081511415611c95576040517f08c379a0000000000000000000000000000000000000000000000000000000008152600401611c8c90612b40565b60405180910390fd5b805181602001fd5b63150b7a0260e01b7bffffffffffffffffffffffffffffffffffffffffffffffffffffffff1916817bffffffffffffffffffffffffffffffffffffffffffffffffffffffff191614915050611cf2565b600190505b949350505050565b600080600090507a184f03e93ff9f4daa797ed6e38ed64bf6a1f0100000000000000008310611d7e577a184f03e93ff9f4daa797ed6e38ed64bf6a1f0100000000000000008381611d74577f4e487b7100000000000000000000000000000000000000000000000000000000600052601260045260246000fd5b0492506040810190505b6d04ee2d6d415b85acef81000000008310611de1576d04ee2d6d415b85acef81000000008381611dd7577f4e487b7100000000000000000000000000000000000000000000000000000000600052601260045260246000fd5b0492506020810190505b662386f26fc100008310611e3657662386f26fc100008381611e2c577f4e487b7100000000000000000000000000000000000000000000000000000000600052601260045260246000fd5b0492506010810190505b6305f5e1008310611e85576305f5e1008381611e7b577f4e487b7100000000000000000000000000000000000000000000000000000000600052601260045260246000fd5b0492506008810190505b6127108310611ed0576127108381611ec6577f4e487b7100000000000000000000000000000000000000000000000000000000600052601260045260246000fd5b0492506004810190505b60648310611f195760648381611f0f577f4e487b7100000000000000000000000000000000000000000000000000000000600052601260045260246000fd5b0492506002810190505b600a8310611f28576001810190505b80915050919050565b600073ffffffffffffffffffffffffffffffffffffffff168273ffffffffffffffffffffffffffffffffffffffff161415611fa1576040517f08c379a0000000000000000000000000000000000000000000000000000000008152600401611f9890612c60565b60405180910390fd5b611faa81611997565b15611fea576040517f08c379a0000000000000000000000000000000000000000000000000000000008152600401611fe190612bc0565b60405180910390fd5b611ff8600083836001611afc565b61200181611997565b15612041576040517f08c379a000000000000000000000000000000000000000000000000000000000815260040161203890612bc0565b60405180910390fd5b6001600360008473ffffffffffffffffffffffffffffffffffffffff1673ffffffffffffffffffffffffffffffffffffffff16815260200190815260200160002060008282540192505081905550816002600083815260200190815260200160002060006101000a81548173ffffffffffffffffffffffffffffffffffffffff021916908373ffffffffffffffffffffffffffffffffffffffff160217905550808273ffffffffffffffffffffffffffffffffffffffff16600073ffffffffffffffffffffffffffffffffffffffff167fddf252ad1be2c89b69c2b068fc378daa952ba7f163c4a11628f55a4df523b3ef60405160405180910390a461214b600083836001611b02565b5050565b6000808273ffffffffffffffffffffffffffffffffffffffff163b119050919050565b82805461217e90612fac565b90600052602060002090601f0160209004810192826121a057600085556121e7565b82601f106121b957803560ff19168380011785556121e7565b828001600101855582156121e7579182015b828111156121e65782358255916020019190600101906121cb565b5b5090506121f491906121f8565b5090565b5b808211156122115760008160009055506001016121f9565b5090565b600061222861222384612da0565b612d7b565b90508281526020810184848401111561224057600080fd5b61224b848285612f6a565b509392505050565b6000813590506122628161355d565b92915050565b60008135905061227781613574565b92915050565b60008135905061228c8161358b565b92915050565b6000815190506122a18161358b565b92915050565b600082601f8301126122b857600080fd5b81356122c8848260208601612215565b91505092915050565b60008083601f8401126122e357600080fd5b8235905067ffffffffffffffff8111156122fc57600080fd5b60208301915083600182028301111561231457600080fd5b9250929050565b60008135905061232a816135a2565b92915050565b60006020828403121561234257600080fd5b600061235084828501612253565b91505092915050565b6000806040838503121561236c57600080fd5b600061237a85828601612253565b925050602061238b85828601612253565b9150509250929050565b6000806000606084860312156123aa57600080fd5b60006123b886828701612253565b93505060206123c986828701612253565b92505060406123da8682870161231b565b9150509250925092565b600080600080608085870312156123fa57600080fd5b600061240887828801612253565b945050602061241987828801612253565b935050604061242a8782880161231b565b925050606085013567ffffffffffffffff81111561244757600080fd5b612453878288016122a7565b91505092959194509250565b6000806040838503121561247257600080fd5b600061248085828601612253565b925050602061249185828601612268565b9150509250929050565b600080604083850312156124ae57600080fd5b60006124bc85828601612253565b92505060206124cd8582860161231b565b9150509250929050565b6000602082840312156124e957600080fd5b60006124f784828501612268565b91505092915050565b60006020828403121561251257600080fd5b60006125208482850161227d565b91505092915050565b60006020828403121561253b57600080fd5b600061254984828501612292565b91505092915050565b6000806020838503121561256557600080fd5b600083013567ffffffffffffffff81111561257f57600080fd5b61258b858286016122d1565b92509250509250929050565b6000602082840312156125a957600080fd5b60006125b78482850161231b565b91505092915050565b6125c981612ef6565b82525050565b6125d881612ee4565b82525050565b6125e781612f08565b82525050565b60006125f882612de6565b6126028185612dfc565b9350612612818560208601612f79565b61261b816130e5565b840191505092915050565b600061263182612df1565b61263b8185612e18565b935061264b818560208601612f79565b612654816130e5565b840191505092915050565b600061266a82612df1565b6126748185612e29565b9350612684818560208601612f79565b80840191505092915050565b6000815461269d81612fac565b6126a78186612e29565b945060018216600081146126c257600181146126d357612706565b60ff19831686528186019350612706565b6126dc85612dd1565b60005b838110156126fe578154818901526001820191506020810190506126df565b838801955050505b50505092915050565b600061271c601083612e18565b9150612727826130f6565b602082019050919050565b600061273f602d83612e18565b915061274a8261311f565b604082019050919050565b6000612762603283612e18565b915061276d8261316e565b604082019050919050565b6000612785601383612e18565b9150612790826131bd565b602082019050919050565b60006127a8602683612e18565b91506127b3826131e6565b604082019050919050565b60006127cb602583612e18565b91506127d682613235565b604082019050919050565b60006127ee601c83612e18565b91506127f982613284565b602082019050919050565b6000612811602483612e18565b915061281c826132ad565b604082019050919050565b6000612834601983612e18565b915061283f826132fc565b602082019050919050565b6000612857600883612e18565b915061286282613325565b602082019050919050565b600061287a602983612e18565b91506128858261334e565b604082019050919050565b600061289d602083612e18565b91506128a88261339d565b602082019050919050565b60006128c0600583612e29565b91506128cb826133c6565b600582019050919050565b60006128e3602083612e18565b91506128ee826133ef565b602082019050919050565b6000612906600f83612e18565b915061291182613418565b602082019050919050565b6000612929601883612e18565b915061293482613441565b602082019050919050565b600061294c602183612e18565b91506129578261346a565b604082019050919050565b600061296f600083612e0d565b915061297a826134b9565b600082019050919050565b6000612992603d83612e18565b915061299d826134bc565b604082019050919050565b60006129b5601583612e18565b91506129c08261350b565b602082019050919050565b60006129d8600f83612e18565b91506129e382613534565b602082019050919050565b6129f781612f60565b82525050565b6000612a098285612690565b9150612a15828461265f565b9150612a20826128b3565b91508190509392505050565b6000612a3782612962565b9150819050919050565b6000602082019050612a5660008301846125cf565b92915050565b6000602082019050612a7160008301846125c0565b92915050565b6000608082019050612a8c60008301876125cf565b612a9960208301866125cf565b612aa660408301856129ee565b8181036060830152612ab881846125ed565b905095945050505050565b6000602082019050612ad860008301846125de565b92915050565b60006020820190508181036000830152612af88184612626565b905092915050565b60006020820190508181036000830152612b198161270f565b9050919050565b60006020820190508181036000830152612b3981612732565b9050919050565b60006020820190508181036000830152612b5981612755565b9050919050565b60006020820190508181036000830152612b7981612778565b9050919050565b60006020820190508181036000830152612b998161279b565b9050919050565b60006020820190508181036000830152612bb9816127be565b9050919050565b60006020820190508181036000830152612bd9816127e1565b9050919050565b60006020820190508181036000830152612bf981612804565b9050919050565b60006020820190508181036000830152612c1981612827565b9050919050565b60006020820190508181036000830152612c398161284a565b9050919050565b60006020820190508181036000830152612c598161286d565b9050919050565b60006020820190508181036000830152612c7981612890565b9050919050565b60006020820190508181036000830152612c99816128d6565b9050919050565b60006020820190508181036000830152612cb9816128f9565b9050919050565b60006020820190508181036000830152612cd98161291c565b9050919050565b60006020820190508181036000830152612cf98161293f565b9050919050565b60006020820190508181036000830152612d1981612985565b9050919050565b60006020820190508181036000830152612d39816129a8565b9050919050565b60006020820190508181036000830152612d59816129cb565b9050919050565b6000602082019050612d7560008301846129ee565b92915050565b6000612d85612d96565b9050612d918282612fde565b919050565b6000604051905090565b600067ffffffffffffffff821115612dbb57612dba6130b6565b5b612dc4826130e5565b9050602081019050919050565b60008190508160005260206000209050919050565b600081519050919050565b600081519050919050565b600082825260208201905092915050565b600081905092915050565b600082825260208201905092915050565b600081905092915050565b6000612e3f82612f60565b9150612e4a83612f60565b9250827fffffffffffffffffffffffffffffffffffffffffffffffffffffffffffffffff03821115612e7f57612e7e613058565b5b828201905092915050565b6000612e9582612f60565b9150612ea083612f60565b9250817fffffffffffffffffffffffffffffffffffffffffffffffffffffffffffffffff0483118215151615612ed957612ed8613058565b5b828202905092915050565b6000612eef82612f40565b9050919050565b6000612f0182612f40565b9050919050565b60008115159050919050565b60007fffffffff0000000000000000000000000000000000000000000000000000000082169050919050565b600073ffffffffffffffffffffffffffffffffffffffff82169050919050565b6000819050919050565b82818337600083830152505050565b60005b83811015612f97578082015181840152602081019050612f7c565b83811115612fa6576000848401525b50505050565b60006002820490506001821680612fc457607f821691505b60208210811415612fd857612fd7613087565b5b50919050565b612fe7826130e5565b810181811067ffffffffffffffff82111715613006576130056130b6565b5b80604052505050565b600061301a82612f60565b91507fffffffffffffffffffffffffffffffffffffffffffffffffffffffffffffffff82141561304d5761304c613058565b5b600182019050919050565b7f4e487b7100000000000000000000000000000000000000000000000000000000600052601160045260246000fd5b7f4e487b7100000000000000000000000000000000000000000000000000000000600052602260045260246000fd5b7f4e487b7100000000000000000000000000000000000000000000000000000000600052604160045260246000fd5b6000601f19601f8301169050919050565b7f77726f6e67206d696e742076616c756500000000000000000000000000000000600082015250565b7f4552433732313a2063616c6c6572206973206e6f7420746f6b656e206f776e6560008201527f72206f7220617070726f76656400000000000000000000000000000000000000602082015250565b7f4552433732313a207472616e7366657220746f206e6f6e20455243373231526560008201527f63656976657220696d706c656d656e7465720000000000000000000000000000602082015250565b7f6d696e74696e67206e6f7420656e61626c656400000000000000000000000000600082015250565b7f4f776e61626c653a206e6577206f776e657220697320746865207a65726f206160008201527f6464726573730000000000000000000000000000000000000000000000000000602082015250565b7f4552433732313a207472616e736665722066726f6d20696e636f72726563742060008201527f6f776e6572000000000000000000000000000000000000000000000000000000602082015250565b7f4552433732313a20746f6b656e20616c7265616479206d696e74656400000000600082015250565b7f4552433732313a207472616e7366657220746f20746865207a65726f2061646460008201527f7265737300000000000000000000000000000000000000000000000000000000602082015250565b7f4552433732313a20617070726f766520746f2063616c6c657200000000000000600082015250565b7f736f6c64206f7574000000000000000000000000000000000000000000000000600082015250565b7f4552433732313a2061646472657373207a65726f206973206e6f74206120766160008201527f6c6964206f776e65720000000000000000000000000000000000000000000000602082015250565b7f4552433732313a206d696e7420746f20746865207a65726f2061646472657373600082015250565b7f2e6a736f6e000000000000000000000000000000000000000000000000000000600082015250565b7f4f776e61626c653a2063616c6c6572206973206e6f7420746865206f776e6572600082015250565b7f657863656564206d6178206d696e740000000000000000000000000000000000600082015250565b7f4552433732313a20696e76616c696420746f6b656e2049440000000000000000600082015250565b7f4552433732313a20617070726f76616c20746f2063757272656e74206f776e6560008201527f7200000000000000000000000000000000000000000000000000000000000000602082015250565b50565b7f4552433732313a20617070726f76652063616c6c6572206973206e6f7420746f60008201527f6b656e206f776e6572206f7220617070726f76656420666f7220616c6c000000602082015250565b7f546f6b656e20646f6573206e6f74206578697374210000000000000000000000600082015250565b7f7769746864726177206661696c65640000000000000000000000000000000000600082015250565b61356681612ee4565b811461357157600080fd5b50565b61357d81612f08565b811461358857600080fd5b50565b61359481612f14565b811461359f57600080fd5b50565b6135ab81612f60565b81146135b657600080fd5b5056fea264697066735822122021679b3c14b4b7f52287ee2c93e02454a142ad25bb39f45e52917f667db5a9cd64736f6c63430008040033",
    "linkReferences": {},
    "deployedLinkReferences": {}
}